{
  "_format": "hh-sol-artifact-1",
  "contractName": "Walendly",
  "sourceName": "contracts/walendly.sol",
  "abi": [
    {
      "anonymous": false,
      "inputs": [
        {
          "indexed": true,
          "internalType": "address",
          "name": "previousOwner",
          "type": "address"
        },
        {
          "indexed": true,
          "internalType": "address",
          "name": "newOwner",
          "type": "address"
        }
      ],
      "name": "OwnershipTransferred",
      "type": "event"
    },
    {
      "inputs": [
        {
          "internalType": "string",
          "name": "_title",
          "type": "string"
        },
        {
          "internalType": "uint256",
          "name": "_startTime",
          "type": "uint256"
        },
        {
          "internalType": "uint256",
          "name": "_endTime",
          "type": "uint256"
        }
      ],
      "name": "createAppointment",
      "outputs": [],
      "stateMutability": "payable",
      "type": "function"
    },
    {
      "inputs": [],
      "name": "getAppointments",
      "outputs": [
        {
          "components": [
            {
              "internalType": "string",
              "name": "title",
              "type": "string"
            },
            {
              "internalType": "address",
              "name": "attendee",
              "type": "address"
            },
            {
              "internalType": "uint256",
              "name": "startTime",
              "type": "uint256"
            },
            {
              "internalType": "uint256",
              "name": "endTime",
              "type": "uint256"
            },
            {
              "internalType": "uint256",
              "name": "amountPaid",
              "type": "uint256"
            }
          ],
          "internalType": "struct Walendly.Appointment[]",
          "name": "",
          "type": "tuple[]"
        }
      ],
      "stateMutability": "view",
      "type": "function"
    },
    {
      "inputs": [],
      "name": "getRate",
      "outputs": [
        {
          "internalType": "uint256",
          "name": "",
          "type": "uint256"
        }
      ],
      "stateMutability": "view",
      "type": "function"
    },
    {
      "inputs": [],
      "name": "owner",
      "outputs": [
        {
          "internalType": "address",
          "name": "",
          "type": "address"
        }
      ],
      "stateMutability": "view",
      "type": "function"
    },
    {
      "inputs": [],
      "name": "renounceOwnership",
      "outputs": [],
      "stateMutability": "nonpayable",
      "type": "function"
    },
    {
      "inputs": [
        {
          "internalType": "uint256",
          "name": "_rate",
          "type": "uint256"
        }
      ],
      "name": "setRate",
      "outputs": [],
      "stateMutability": "nonpayable",
      "type": "function"
    },
    {
      "inputs": [
        {
          "internalType": "address",
          "name": "newOwner",
          "type": "address"
        }
      ],
      "name": "transferOwnership",
      "outputs": [],
      "stateMutability": "nonpayable",
      "type": "function"
    }
  ],
  "bytecode": "0x608060405234801561001057600080fd5b5061002d61002261003260201b60201c565b61003a60201b60201c565b6100fe565b600033905090565b60008060009054906101000a900473ffffffffffffffffffffffffffffffffffffffff169050816000806101000a81548173ffffffffffffffffffffffffffffffffffffffff021916908373ffffffffffffffffffffffffffffffffffffffff1602179055508173ffffffffffffffffffffffffffffffffffffffff168173ffffffffffffffffffffffffffffffffffffffff167f8be0079c531659141344cd1fd0a4f28419497f9722a3daafe3b4186f6b6457e060405160405180910390a35050565b6110a18061010d6000396000f3fe6080604052600436106100705760003560e01c8063715018a61161004e578063715018a6146100e55780638da5cb5b146100fc57806396b80d0814610127578063f2fde38b1461015257610070565b806334fcf4371461007557806359c35bdf1461009e578063679aefce146100ba575b600080fd5b34801561008157600080fd5b5061009c600480360381019061009791906107ff565b61017b565b005b6100b860048036038101906100b39190610972565b61018d565b005b3480156100c657600080fd5b506100cf610398565b6040516100dc91906109f0565b60405180910390f35b3480156100f157600080fd5b506100fa6103a2565b005b34801561010857600080fd5b506101116103b6565b60405161011e9190610a4c565b60405180910390f35b34801561013357600080fd5b5061013c6103df565b6040516101499190610c45565b60405180910390f35b34801561015e57600080fd5b5061017960048036038101906101749190610c93565b610544565b005b6101836105c8565b8060018190555050565b6000600154603c84846101a09190610cef565b6101aa9190610d52565b6101b49190610d83565b9050803410156101f9576040517f08c379a00000000000000000000000000000000000000000000000000000000081526004016101f090610e3a565b60405180910390fd5b60003373ffffffffffffffffffffffffffffffffffffffff163460405161021f90610e8b565b60006040518083038185875af1925050503d806000811461025c576040519150601f19603f3d011682016040523d82523d6000602084013e610261565b606091505b50509050806102a5576040517f08c379a000000000000000000000000000000000000000000000000000000000815260040161029c90610eec565b60405180910390fd5b60026040518060a001604052808781526020013373ffffffffffffffffffffffffffffffffffffffff1681526020018681526020018581526020018481525090806001815401808255809150506001900390600052602060002090600502016000909190919091506000820151816000019080519060200190610329929190610712565b5060208201518160010160006101000a81548173ffffffffffffffffffffffffffffffffffffffff021916908373ffffffffffffffffffffffffffffffffffffffff16021790555060408201518160020155606082015181600301556080820151816004015550505050505050565b6000600154905090565b6103aa6105c8565b6103b46000610646565b565b60008060009054906101000a900473ffffffffffffffffffffffffffffffffffffffff16905090565b60606002805480602002602001604051908101604052809291908181526020016000905b8282101561053b57838290600052602060002090600502016040518060a001604052908160008201805461043690610f3b565b80601f016020809104026020016040519081016040528092919081815260200182805461046290610f3b565b80156104af5780601f10610484576101008083540402835291602001916104af565b820191906000526020600020905b81548152906001019060200180831161049257829003601f168201915b505050505081526020016001820160009054906101000a900473ffffffffffffffffffffffffffffffffffffffff1673ffffffffffffffffffffffffffffffffffffffff1673ffffffffffffffffffffffffffffffffffffffff168152602001600282015481526020016003820154815260200160048201548152505081526020019060010190610403565b50505050905090565b61054c6105c8565b600073ffffffffffffffffffffffffffffffffffffffff168173ffffffffffffffffffffffffffffffffffffffff1614156105bc576040517f08c379a00000000000000000000000000000000000000000000000000000000081526004016105b390610fdf565b60405180910390fd5b6105c581610646565b50565b6105d061070a565b73ffffffffffffffffffffffffffffffffffffffff166105ee6103b6565b73ffffffffffffffffffffffffffffffffffffffff1614610644576040517f08c379a000000000000000000000000000000000000000000000000000000000815260040161063b9061104b565b60405180910390fd5b565b60008060009054906101000a900473ffffffffffffffffffffffffffffffffffffffff169050816000806101000a81548173ffffffffffffffffffffffffffffffffffffffff021916908373ffffffffffffffffffffffffffffffffffffffff1602179055508173ffffffffffffffffffffffffffffffffffffffff168173ffffffffffffffffffffffffffffffffffffffff167f8be0079c531659141344cd1fd0a4f28419497f9722a3daafe3b4186f6b6457e060405160405180910390a35050565b600033905090565b82805461071e90610f3b565b90600052602060002090601f0160209004810192826107405760008555610787565b82601f1061075957805160ff1916838001178555610787565b82800160010185558215610787579182015b8281111561078657825182559160200191906001019061076b565b5b5090506107949190610798565b5090565b5b808211156107b1576000816000905550600101610799565b5090565b6000604051905090565b600080fd5b600080fd5b6000819050919050565b6107dc816107c9565b81146107e757600080fd5b50565b6000813590506107f9816107d3565b92915050565b600060208284031215610815576108146107bf565b5b6000610823848285016107ea565b91505092915050565b600080fd5b600080fd5b6000601f19601f8301169050919050565b7f4e487b7100000000000000000000000000000000000000000000000000000000600052604160045260246000fd5b61087f82610836565b810181811067ffffffffffffffff8211171561089e5761089d610847565b5b80604052505050565b60006108b16107b5565b90506108bd8282610876565b919050565b600067ffffffffffffffff8211156108dd576108dc610847565b5b6108e682610836565b9050602081019050919050565b82818337600083830152505050565b6000610915610910846108c2565b6108a7565b90508281526020810184848401111561093157610930610831565b5b61093c8482856108f3565b509392505050565b600082601f8301126109595761095861082c565b5b8135610969848260208601610902565b91505092915050565b60008060006060848603121561098b5761098a6107bf565b5b600084013567ffffffffffffffff8111156109a9576109a86107c4565b5b6109b586828701610944565b93505060206109c6868287016107ea565b92505060406109d7868287016107ea565b9150509250925092565b6109ea816107c9565b82525050565b6000602082019050610a0560008301846109e1565b92915050565b600073ffffffffffffffffffffffffffffffffffffffff82169050919050565b6000610a3682610a0b565b9050919050565b610a4681610a2b565b82525050565b6000602082019050610a616000830184610a3d565b92915050565b600081519050919050565b600082825260208201905092915050565b6000819050602082019050919050565b600081519050919050565b600082825260208201905092915050565b60005b83811015610acd578082015181840152602081019050610ab2565b83811115610adc576000848401525b50505050565b6000610aed82610a93565b610af78185610a9e565b9350610b07818560208601610aaf565b610b1081610836565b840191505092915050565b610b2481610a2b565b82525050565b610b33816107c9565b82525050565b600060a0830160008301518482036000860152610b568282610ae2565b9150506020830151610b6b6020860182610b1b565b506040830151610b7e6040860182610b2a565b506060830151610b916060860182610b2a565b506080830151610ba46080860182610b2a565b508091505092915050565b6000610bbb8383610b39565b905092915050565b6000602082019050919050565b6000610bdb82610a67565b610be58185610a72565b935083602082028501610bf785610a83565b8060005b85811015610c335784840389528151610c148582610baf565b9450610c1f83610bc3565b925060208a01995050600181019050610bfb565b50829750879550505050505092915050565b60006020820190508181036000830152610c5f8184610bd0565b905092915050565b610c7081610a2b565b8114610c7b57600080fd5b50565b600081359050610c8d81610c67565b92915050565b600060208284031215610ca957610ca86107bf565b5b6000610cb784828501610c7e565b91505092915050565b7f4e487b7100000000000000000000000000000000000000000000000000000000600052601160045260246000fd5b6000610cfa826107c9565b9150610d05836107c9565b925082821015610d1857610d17610cc0565b5b828203905092915050565b7f4e487b7100000000000000000000000000000000000000000000000000000000600052601260045260246000fd5b6000610d5d826107c9565b9150610d68836107c9565b925082610d7857610d77610d23565b5b828204905092915050565b6000610d8e826107c9565b9150610d99836107c9565b9250817fffffffffffffffffffffffffffffffffffffffffffffffffffffffffffffffff0483118215151615610dd257610dd1610cc0565b5b828202905092915050565b600082825260208201905092915050565b7f496e73756666696369656e742045687465722070726f76696465640000000000600082015250565b6000610e24601b83610ddd565b9150610e2f82610dee565b602082019050919050565b60006020820190508181036000830152610e5381610e17565b9050919050565b600081905092915050565b50565b6000610e75600083610e5a565b9150610e8082610e65565b600082019050919050565b6000610e9682610e68565b9150819050919050565b7f4661696c656420746f2073656e64204574686572000000000000000000000000600082015250565b6000610ed6601483610ddd565b9150610ee182610ea0565b602082019050919050565b60006020820190508181036000830152610f0581610ec9565b9050919050565b7f4e487b7100000000000000000000000000000000000000000000000000000000600052602260045260246000fd5b60006002820490506001821680610f5357607f821691505b60208210811415610f6757610f66610f0c565b5b50919050565b7f4f776e61626c653a206e6577206f776e657220697320746865207a65726f206160008201527f6464726573730000000000000000000000000000000000000000000000000000602082015250565b6000610fc9602683610ddd565b9150610fd482610f6d565b604082019050919050565b60006020820190508181036000830152610ff881610fbc565b9050919050565b7f4f776e61626c653a2063616c6c6572206973206e6f7420746865206f776e6572600082015250565b6000611035602083610ddd565b915061104082610fff565b602082019050919050565b6000602082019050818103600083015261106481611028565b905091905056fea2646970667358221220f43b2df107ddc608802ac157729ea0cbf5724775ea60adcf9e783bf6f751e08964736f6c63430008090033",
  "linkReferences": {},
  "deployedLinkReferences": {}
}